:10000000E5EF02F00000000000EF00F0000000004B
:0A0010000000000000000000F3D71C
:10001C00560E0C6EB50E0D6E0D2EFED70C2EFCD79B
:06002C00000000001200BC
:0E003200C70E0D6E0D2EFED70000000012004E
:0E004000030E0D6E0D2EFED700000000120004
:10004E00010149BF02D0819E01D0818E49BD02D0EF
:10005E00819C01D0818C49BB02D0819A01D0818ACA
:10006E0049B902D0819801D0818829B102D081840A
:10007E0001D081948186DDDF819649B702D0819EC1
:10008E0001D0818E49B502D0819C01D0818C49B3BB
:10009E0002D0819A01D0818A49B102D0819801D0D3
:1000AE00818829B102D0818401D081948186C1DFFB
:0E00BE00819629A102D0ABDF01D0B4DF120081
:0E00CC000101299148C149F1BCDF29811200D0
:1000DA0010D0800E0101436F1AD0C00E436F17D0A3
:1000EA00940E436F14D0D40E436F11D0800E436F19
:1000FA000ED001014351010AECE04351020AEDE03E
:10010A004351030AEDE04351040AEDE0EFD74405F9
:10011A00006E4351002600C043F100C049F192DF4E
:10012A002991476B47514525E96E000E4621EA6E33
:10013A00EE520BE047514525E96E000E4621EA6E64
:0E014A00EECF48F1BEDF472BEDD72981120022
:1001580001013E6B406B416B100E426F040E415D16
:100168001DE2F00E836E421D956E66DF65DF0F0E91
:100178008314006E00C03FF100520AE040C13EF116
:100188003F5304E03F333F9F3E2BFAD7040E416FA5
:1001980042374291040E4027412BE0D73EC100F080
:0201A800120043
:0E01AA00270E0D6E0D2EFED700000000120075
:1001B800010E0101436F010E446F7B0E456F000E67
:1001C800466F87DF020E436F010E446F8B0E456F3B
:0801D800000E466F7EDF1200ED
:0E01E000ACB202D00000FCD73EC1ADFF120051
:1001EE0001012851420A2EE1286B00017A6BB86B8F
:1001FE00010E0101496F24DF020E496F21DF010E4E
:10020E00436F010E446FB90E456F000E466F5EDFF1
:10021E00020E436F010E446F960E456F000E466F31
:10022E0055DF500E0B6E240E0C6E860E0D6E0D2EBF
:10023E00FED70C2EFCD70B2EFAD70000010E496FFD
:10024E00FFDEB3DF2851440A2EE1286B00017A6BE2
:10025E00B86B010E0101496FF3DE010E436F010E03
:10026E00446FA70E456F000E466F30DF020E436FD0
:10027E00010E446F320E456F000E466F27DF500E93
:10028E000B6E240E0C6E860E0D6E0D2EFED70C2EE2
:10029E00FCD70B2EFAD70000010E496FD1DE020EED
:1002AE00496FCEDE82DF2851430A0AE1010E496F03
:1002BE00C7DE020E496FC4DE286B00017A6B75DF54
:0202CE0012001C
:1002D00001013D6B3AC1E9FF3BC1EAFFEECF3CF1C2
:1002E0003C51000A0EE03CC13EF17ADF01013D2B9A
:1002F0003D513A25E96E000E3B21EA6EEECF3CF10E
:04030000EFD7120021
:1003040029DF00C03AF10F0E8314006E02E04BDFC8
:08031400FAD73AC100F0120013
:10031C00E00E0101326F010E336F3E0E346F010E91
:10032C00356FFF0E366FFF0E376F000E386F000EF5
:10033C00396FFF0E2A6FFF0E2B6F000E2C6F000E05
:10034C002D6FFF0E2E6FFF0E2F6F000E306F000EF5
:10035C00316FAC8A900EAB6E948E949C9EAA03D097
:08036C00AECF00F0FBD7120038
:10037400939693949398939A939C939E8196819445
:10038400819E819C819A819847DE46DE45DE818A82
:100394008188818653DE81963FDE81864FDE819699
:1003A4003BDE81864BDE819637DE8198818646DE90
:1003B400819632DE818642DE8196819A818E8186A3
:1003C4003DDE819629DE819E8188818637DE819695
:1003D4008198818633DE81961FDE81862FDE8196A9
:1003E400818881862BDE819617DE8198818626DEC0
:1003F4008196818E818C818A818881861FDE819697
:080404000BDE01012981120049
:10040C000900F5CFE6FF0006FBE10106F9E1120059
:06041C00FF0E956E1200B8
:10042200010E0101436F010E446F080E456F010E6C
:10043200466F52DE020E436F010E446F110E456F7E
:08044200010E466F49DE1200B5
:10044A00430E01013A6F000E3B6F3DDF150E3A6F06
:10045A00000E3B6F38DF280E3A6F000E3B6F33DF1A
:10046A00650E3A6F000E3B6F2EDF700E3A6F000E6C
:10047A003B6F29DF580E3A6F000E3B6F24DF5A0E8E
:10048A003A6F000E3B6F1FDFFE0E3A6F000E3B6F96
:10049A001ADF07C13AF1000E07BFFF0E3B6F13DFE9
:1004AA00EB0E3A6F000E3B6F0EDFF50E3A6F000E41
:1004BA003B6F09DF1DC13AF1000E1DBFFF0E3B6FF6
:0E04CA0002DF1E0E3A6F010E3B6FFDDE1200C8
:1004D8000101286B13DF00C028F10052FBE030D087
:1004E800310E286F5DD0320E286F5AD0330E286F28
:1004F80057D0410E286F54D0340E286F51D0350E86
:10050800286F4ED0360E286F4BD0420E286F48D039
:10051800370E286F45D0380E286F42D0390E286F15
:100528003FD0430E286F3CD02A0E286F39D0300EAA
:10053800286F36D0230E286F33D0440E286F30D062
:100548002851010ACDE02851020ACDE02851030ABA
:10055800CDE02851040ACDE02851050ACDE0285104
:10056800060ACDE02851070ACDE02851080ACDE057
:100578002851090ACDE028510A0ACDE028510B0A72
:10058800CDE028510C0ACDE028510D0ACDE02851C4
:100598000E0ACDE028510F0ACDE02851100ACDE00F
:1005A80028510001D91902E028C1D9F01CDE120037
:1005B80001012851410A01E103D028C148F182DD37
:0205C80012001F
:1005CA001EEC04F0800ED06E0F0EB46EF16A0F0EA0
:1005DA00C112836A966A846A1CDFB886040EB06EFA
:1005EA00E10EAF6EAC8495DE9C0E0C6ED70E0D6ECE
:1005FA000D2EFED70C2EFCD7936A816AB6DE0C0E3E
:10060A00496F20DD010E496F1DDD9C0E0C6ED70E61
:10061A000D6E0D2EFED70C2EFCD7C9DD0001B85188
:10062A00000A02E1C4DD53DF01012851000AD8B4EF
:10063A0074D0010E0001B86FBADF00017A2B47DFD0
:10064A0000017A51030A04E142DF2851410AFCE120
:10065A0001012851410AF0E128C107F1010E496F51
:10066A00F1DCDADE286B00017A6B9C0E0C6ED70E79
:10067A000D6E0D2EFED70C2EFCD701012851000A53
:10068A0004E125DF2851000AFCE091DF00017A2B02
:10069A001EDF00017A51030A04E119DF2851410AD9
:1006AA00FCE101012851410AE8E128C11DF1010ECE
:1006BA00496FC8DC00017A6BB86B0101286BC0DE98
:1006CA00076B1D6B010E436F010E446FDA0E456F07
:1006DA00000E466FFDDC020E436F010E446FCA0E18
:1006EA00456F000E466FF4DC7A0E0B6EC10E0C6E6F
:1006FA00810E0D6E0D2EFED70C2EFCD70B2EFAD7BF
:10070A0000000000010E496F9DDC9C0E0C6ED70E96
:0E071A000D6E0D2EFED70C2EFCD780D7FFD70C
:10083C0010EE15F0130E006E020E016E280EF66E01
:0E084C00070EF76E000EF86E06EC02F01200BA
:10072800656E636F64696E673D227574662D382245
:030738003F3E0041
:0A073B003C526571756573743E0051
:1007450020202020456E76696164612020202020CC
:0107550000A3
:100756003C3F786D6C2076657273696F6E3D223111
:050766002E30222000EE
:02076B0031005B
:0B076D003C2F5461626C6549443E0063
:0B0778003C49443E303C2F49443E0009
:0A0783003C5461626C6549443E007D
:01078D00006B
:10078E00446967697465206F204E756D65726F00E0
:0B079E00446F2050656469646F3A00EE
:1007A9002020202020476172E76F6E202020202022
:0107B900003F
:1007BA002020202020436F6E7461202020202020DA
:0107CA00002E
:0107CB00002D
:1007CC00202020204368616D616E646F2020202002
:0107DC00001C
:0F07DD0020202020656E766961646F2020200047
:0107EC00000C
:1007ED00202020202050656469646F202020202067
:0107FD0000FB
:0A07FE003C2F4974656D49443E002C
:090808003C416D6F756E743E00F9
:090811003C4974656D49443E0048
:01081A0000DD
:09081B00446967697465206100FD
:0C0824007175616E7469646164653A006E
:0108300000C7
:0A0831003C2F416D6F756E743E00A0
:020000040030CA
:0E000000000C1F1EFF8381FF0FC00FE00F409A
:00000001FF
