:04000000E1EF02F03A
:1000080000C015F0F29E9EAA1AD0ABA407D0AECFBE
:10001800C7F0000E0001C86FF28E26D0ABA204D044
:10002800AB98AB88F28E20D00001AECFC9F0000E9D
:10003800CA6FC96BCA6BC46BC56BC66BD66AF2A4B0
:1000480012D00001D66AF294C54BC62B800E030A63
:10005800006E800EC619005C02E1C551E70803E294
:0E006800C42BC56BC66BF28E15C000F01100E4
:0E007600C70E0D6E0D2EFED70000000012000A
:10008400560E0C6EB50E0D6E0D2EFED70C2EFCD733
:0600940000000000120054
:0E009A00030E0D6E0D2EFED7000000001200AA
:1000A8000001EFBF02D0819E01D0818EEFBD02D04A
:1000B800819C01D0818CEFBB02D0819A01D0818ACA
:1000C800EFB902D0819801D08188D8B102D081845B
:1000D80001D081948186DDDF8196EFB702D0819EC1
:1000E80001D0818EEFB502D0819C01D0818CEFB315
:1000F80002D0819A01D0818AEFB102D0819801D0D3
:100108008188D8B102D0818401D081948186C1DFF1
:0E0118008196D8A102D0B2DF01D0A9DF12007B
:0E0126000001D891EEC0EFF0BCDFD8811200CE
:1001340010D0800E0001E96F1AD0C00EE96F17D0FD
:10014400940EE96F14D0D40EE96F11D0800EE96FCC
:100154000ED00001E951010AECE0E951020AEDE098
:10016400E951030AEDE0E951040AEDE0EFD7EA05AD
:10017400006EE951002600C0E9F000C0EFF092DF04
:10018400D891ED6BED51EB25E96E000EEC21EA6E92
:10019400EE520BE0ED51EB25E96E000EEC21EA6E18
:0E01A400EECFEEF0BEDFED2BEDD7D8811200CE
:0E01B200ACB202D00000FCD7E4C0ADFF1200DA
:0E01C000270E0D6E0D2EFED70000000012005F
:1001CE000001E46BE66BE76B100EE86F040EE75D63
:1001DE0029E2F00E836E120E006E000E016E830E7B
:1001EE000024E16E0F0E0120E26EE81D006E00C0CD
:1001FE00E6FF4CDF4BDF0F0E8314006E00C0E5F000
:10020E0000520AE0E6C0E4F0E55304E0E533E59F72
:10021E00E42BFAD7040EE76FE837E891040EE627D1
:0A022E00E72BD4D7E4C000F0120063
:10023800010E0001E96F010EEA6F210EEB6F000E4F
:10024800EC6F74DF020EE96F010EEA6F160EEB6FAA
:08025800000EEC6F6BDF1200D9
:100260000001CB51420A2FE1CB6BAB6BB46BE46B5B
:10027000A0DF010E0001EF6F17DF020EEF6F14DF3A
:10028000010EE96F010EEA6F9A0EEB6F000EEC6F34
:1002900051DF020EE96F010EEA6F890EEB6F000E5F
:1002A000EC6F48DF500E0B6E240E0C6E860E0D6E3A
:1002B0000D2EFED70C2EFCD70B2EFAD70000010E08
:1002C000EF6FF2DEB9DFCB51440A2FE1CB6BAB6BA2
:1002D000B46BE46B6EDF010E0001EF6FE5DE010E23
:1002E000E96F010EEA6F780EEB6F000EEC6F22DF04
:1002F000020EE96F010EEA6F3D0EEB6F000EEC6F20
:1003000019DF500E0B6E240E0C6E860E0D6E0D2E28
:10031000FED70C2EFCD70B2EFAD70000010EEF6F84
:10032000C3DE020EEF6FC0DE87DFCB51430A09E167
:10033000010EEF6FB9DE020EEF6FB6DECB6BAB6B6B
:040340007BDF12004D
:1003440044DF00C0E3F00F0E8314006E02E036DFDA
:08035400FAD7E3C000F012002B
:10035C00939693949398939A939C939E819681945D
:10036C00819E819C819A819887DE86DE85DE818ADA
:10037C00818881868CDE81967FDE818688DE8196FF
:10038C007BDE818684DE819677DE819881867FDEB6
:10039C00819672DE81867BDE8196819A818E818642
:1003AC0076DE819669DE819E8188818670DE8196FB
:1003BC00819881866CDE81965FDE818668DE81960F
:1003CC008188818664DE819657DE819881865FDE26
:1003DC008196818E818C818A8188818658DE819676
:0803EC004BDE0001D881120074
:1003F400B20E0001D96F010EDA6FE40EDB6F000E4E
:10040400DC6FFF0ECC6FFF0ECD6F000ECE6F000EB3
:10041400CF6FFF0ED06FFF0ED16F000ED26F000EA4
:10042400D36FFF0ED46FFF0ED56F000ED66F000E84
:10043400D76FAC8A900EAB6E948E949C9EAA03D018
:08044400AECF00F0FBD712005F
:10044C000900F5CFE6FF0006FBE10106F9E1120019
:10045C00120E006E000E016E830E0024E16E0F0E64
:0A046C000120E26EFF0EE66E1200A2
:100476000001CB51410A01E103D0CBC0EEF050DEC2
:02048600120062
:100488000001E26BDFC0E9FFE0C0EAFFEECFE1F078
:10049800E151000A0EE0E1C0E4F087DE0001E22B42
:1004A800E251DF25E96E000EE021EA6EEECFE1F0C1
:0404B800EFD7120068
:1004BC000001CB6B41DF00C0CBF00052FBE030D031
:1004CC00310ECB6F5DD0320ECB6F5AD0330ECB6F5B
:1004DC0057D0410ECB6F54D0340ECB6F51D0350E5C
:1004EC00CB6F4ED0360ECB6F4BD0420ECB6F48D06D
:1004FC00370ECB6F45D0380ECB6F42D0390ECB6F49
:10050C003FD0430ECB6F3CD02A0ECB6F39D0300E80
:10051C00CB6F36D0230ECB6F33D0440ECB6F30D095
:10052C00CB51010ACDE0CB51020ACDE0CB51030AED
:10053C00CDE0CB51040ACDE0CB51050ACDE0CB5137
:10054C00060ACDE0CB51070ACDE0CB51080ACDE02D
:10055C00CB51090ACDE0CB510A0ACDE0CB510B0AA5
:10056C00CDE0CB510C0ACDE0CB510D0ACDE0CB51F7
:10057C000E0ACDE0CB510F0ACDE0CB51100ACDE0E5
:0E058C00CB514E1802E0CBC04EF064DE1200E0
:10059A00010E0001E96F010EEA6F4F0EEB6F000EBC
:1005AA00EC6FC3DD020EE96F010EEA6F310EEB6FDD
:0805BA00000EEC6FBADD120027
:1005C2000AEC04F0800ED06E0F0EB46EF16A0F0EBC
:1005D200C112836A966A846A40DF9D9A9D98F28C62
:1005E200F28EF28AB886010EB06E370EAF6EAC8410
:1005F20000DF1F0E0B6E710E0C6E1E0E0D6E0D2E99
:10060200FED70C2EFCD70B2EFAD70000C40ED56EE7
:10061200A00EF26E9D9A9D98F28CF28EF28A750E61
:10062200D36E936A816A99DE0C0EEF6F3CDD010E88
:10063200EF6F39DD9C0E0C6ED70E0D6E0D2EFED7B0
:100642000C2EFCD7F8DDD66AB451000A02E1F3DDC4
:1006520034DFCB51000AD8B47FD0AC0EDF6F000E6E
:10066200E06F11DF010EB46F05DFCBC0E4F0A0DD57
:100672000001AB2B22DFAB51030A04E11EDFCB5199
:10068200410AFCE1CB51410AEFE1CBC0DEF0010EA1
:10069200EF6F09DD81DFCB6BAB6BC10EDF6F000E3D
:1006A200E06FF1DEB50EDF6F000EE06FECDE9C0E48
:1006B2000C6ED70E0D6E0D2EFED70C2EFCD7CB5125
:1006C200000A04E1FADECB51000AFCE0D3DECBC023
:1006D200E4F06EDD0001AB2BF0DEAB51030A04E166
:1006E200ECDECB51410AFCE1CB51410AE8E1CBC03F
:1006F200DDF0010EEF6FD7DCAB6BB46BCB6BDE6B57
:10070200DD6B010EE96F010EEA6F670EEB6F000EF3
:10071200EC6F0FDD020EE96F010EEA6F580EEB6F00
:10072200000EEC6F06DD7A0E0B6EC10E0C6E810EA2
:100732000D6E0D2EFED70C2EFCD70B2EFAD7000015
:100742000000010EEF6FAFDC9C0E0C6ED70E0D6E2B
:0C0752000D2EFED70C2EFCD777D7FFD75A
:1008140010EE16F0B50E006E010E016E5E0EF66E51
:0E082400070EF76E000EF86E26EC02F01200C2
:0B075E00446F2050656469646F3A002E
:10076900446967697465206F204E756D65726F0005
:0C0779007175616E7469646164653A001A
:1007850020202020456E766961646120202020208C
:010795000063
:010796000062
:0907970044696769746520610082
:0F07A00020202020656E766961646F2020200084
:1007AF00202020202050656469646F2020202020A5
:0107BF000039
:1007C0002020202020436F6E7461202020202020D4
:0107D0000028
:1007D10020202020204761723F6F6E2020202020A2
:0107E1000017
:1007E200202020204368616D616E646F20202020EC
:0107F2000006
:0107F3000005
:0807F40050656469646F3A006E
:0107FC0000FC
:0C07FD005175616E7469646164653A00B6
:03080900202000AC
:01080C0000EB
:02080D000000E9
:02080F000000E7
:020811000000E5
:020000040030CA
:0E000000000C1F1EFF8381FF0FC00FE00F409A
:00000001FF
